:040000000200713257
:01000B0032C2
:0100130032BA
:01001B0032B2
:0100230032AA
:01002B0032A2
:01003300329A
:01003B003292
:01004300328A
:01004B003282
:01005300327A
:01005B003272
:01006300326A
:03006B000201107F
:0300CA0002006EC3
:03006E000201018B
:1000CD00907F937404F0907F9C7495F0907F96745C
:1000DD0090F0907F94E4F0907F9D747FF0907F97E7
:1000ED00E4F0907F957440F0907F9E7442F0907F85
:1000FD0098E4F0221200CD12049BD2AF1208C790E3
:10010D00000022C021C0E0C0F0C082C083C007C083
:10011D0006C005C004C003C002C001C000C0D07538
:10012D00D0005391EF1203EE907FAB7401F0907FEE
:10013D00B4E0FF74024FF0D0D0D000D001D002D087
:10014D0003D004D005D006D007D083D082D0F0D014
:10015D00E0D02132323232323232323232C0E0C06D
:10016D0082C083D2015391EF907FA97404F0D083A4
:10017D00D082D0E032C0E0C082C083D2005391EF74
:10018D00907FAA7404F0D083D082D0E03232323224
:10019D0032323232323232AF82747F5FFE24F85007
:1001AD0003020258EE240A83F582EE240C83F583B4
:1001BD00E473CFD3E6F90C1F3245010101010202B0
:1001CD000202907FB422EF30E7067DB67E7F800479
:1001DD007DC67E7F8D828E8322EF30E7067DB87ED1
:1001ED007F80047DC87E7F8D828E8322EF30E7066F
:1001FD007DBA7E7F80047DCA7E7F8D828E8322EFC5
:10020D0030E7067DBC7E7F80047DCC7E7F8D828E27
:10021D008322EF30E7067DBE7E7F80047DCE7E7F1C
:10022D008D828E8322EF30E7067DC07E7F80047D38
:10023D00D07E7F8D828E8322EF30E7067EC27F7F58
:10024D0080047ED27F7F8E828F832290000022AF2A
:10025D008274105FFE74075F4206907FD7EEF074D4
:10026D00204EF022907FE8E0C322907FE8E0FF600F
:10027D0005BF0248800B907FB4E0FF74014FF08002
:10028D003B907FEAE0FEA3E0FF4E7027907FECE00D
:10029D00FEA3E08E821201A4AE82AF83EE4F7002F8
:1002AD00C3228E828F83E0FD5305FE8E828F83EDF8
:1002BD00F08009907FB4E0FF74014FF0D322907F5E
:1002CD00E8E0FF6005BF02468010907FEAE0FEA3E4
:1002DD00E0FFBE0239BF0036D322907FEAE0FEA3D5
:1002ED00E0FF4E7027907FECE0FEA3E08E821201BE
:1002FD00A4AE82AF83EE4F7002C3228E828F83E055
:10030D00FD4305018E828F83EDF08002C322D3223F
:10031D00907FEAE0A3E0FF907FEAE0FDA3E07E009E
:10032D00BF0102800DBF02028021BF030280340293
:10033D0003CE7E917F138F06907FD4EEF07E917F5A
:10034D00137F00907FD5EEF00203D07EA37F138F35
:10035D0006907FD4EEF07EA37F137F00907FD5EEC5
:10036D00F08060907FECE0FEA3E0FF4E70187EC33E
:10037D007F138F06907FD4EEF07EC37F137F0090A6
:10038D007FD5EEF0803D907FECE0FEA3E0FFBE094F
:10039D002EBF042BED1475F002A42417F5827414EE
:1003AD0035F0F583E493FEA3E493FF8E048F058D62
:1003BD0004907FD4ECF07F00907FD5EEF08004C3E5
:1003CD0022C322D32275828212025C75820212022E
:1003DD005C907FB87402F0907FC8E4F0907FC9F014
:1003ED0022907FE9E0FF24F3500122EFF5F0240B7A
:1003FD0083F582E5F0241183F583E4732333434DB4
:10040D00435C675D768687979A04040404040404AC
:10041D00040404040404120271500122907FB4E01C
:10042D00FF74014FF022120277500122907FB4E049
:10043D00FF74014FF022907FB4E0FF74014FF02262
:10044D001202CB4048907FB4E0FF74014FF022229E
:10045D00907FB4E0FF74014FF02212031D402E90E7
:10046D007FB4E0FF74014FF0229013A8E493907FC6
:10047D0000F0907FB57401F022229013AEE49390BA
:10048D007F00F0907FB57401F0221203D222907F8D
:10049D00DE7404F0907FDFF0907FE0E4F0907FE178
:1004AD00F0907FA104F0907FAFE0FF74014FF090CA
:1004BD007FAEE0FF74014FF0907FAD7404F0907F3C
:1004CD00ACF0D2E8907FD6740AF09000C812133ABF
:0704DD00907FD67406F022A7
:1013910012011001FFFFFF4051C21027000101029D
:1013A1000301090220000101048032090400000246
:1013B100FFFFFF000705820240000007050202400F
:1013C10000000403090414034F00700065006E005F
:1013D10055004C0049004E004B0014034F007000B3
:1013E10065006E0055004C0049004E004B000E0395
:1013F1003000300030003000300031001A034A0064
:101401005400410047002000410064006100700069
:0E141100740065007200C713DB13EF13FD13A8
:1004E400E5080424C0F582E4347DF583E0FF30E1BF
:1004F40009907F96E0FE74EF5EF0EF30E009907FA4
:1005040096E0FE747F5EF0EF30E309907F96E0FEA4
:1005140074104EF0EF30E209907F96E0FF74804F44
:10052400F0227F00E50824C0F582E4347DF583E001
:10053400FE24D5500302088DEE240A83F582EE24AE
:100544002F83F583E473A077C69DE9C08D8D8D8DCF
:100554008D8D8D8D8D8D8D8D8D8D8D8D8D8D8D8DC7
:100564008D8D8D8D8D8D10E73F164E86BEEE1C7AD7
:100574008905060506050608080808080808080885
:1005840008080808080808080808080808080808E7
:100594000806060607070707070808087E05E50892
:1005A4000424C0F582E4347DF583E0FFE50804F516
:1005B40082850927C007C006120906D006D00702A3
:1005C400088FE5080424C0F582E4347DF583E02433
:1005D40005FEE50804F582C007C006120BC5D00667
:1005E400D00702088FE5080424C0F582E4347DF5C1
:1005F40083E0FF2405FEE50804F58285093DC00774
:10060400C006120E4ED006D00702088F7E02E508FF
:100614000424C0F582E4347DF583E0FDEE2508244E
:10062400C0F582E4347DF583E0F50A8D82C007C00D
:100634000612120BD006D00702088F7E02E50804CA
:1006440024C0F582E4347DF583E0FC7D00EE2508CA
:1006540024C0F582E4347DF583E0FAE44204EA42FE
:10066400058C828D83C007C00612119ED006D00768
:1006740002088F7E05E5080424C0F582E4347DF584
:1006840083E0FFE50804F58285092DC007C0061242
:100694000A4BD006D00702088FE5080424C0F5826F
:1006A400E4347DF583E02405FEE50804F582C00703
:1006B400C006120CEFD006D00702088FE508042408
:1006C400C0F582E4347DF583E0FF2405FEE50804EB
:1006D400F582850944C007C006120FDBD006D00797
:1006E40002088F7E02E5080424C0F582E4347DF517
:1006F40083E0FBEE250824C0F582E4347DF583E035
:10070400F50A8B82C007C00612123CD006D007023D
:10071400088F7E02E5080424C0F582E4347DF58365
:10072400E0FC7D00EE250824C0F582E4347DF583E9
:10073400E0FAE44204EA42058C828D83C007C006D5
:100744001211C8D006D00702088F7E02E5080424DF
:10075400C0F582E4347DF583E0FC7D00EE250824B9
:10076400C0F582E4347DF583E0FAE44204EA42050C
:100774008C828D83C007C006121307D006D00702EF
:10078400088F7E02E5080424C0F582E4347DF583F5
:10079400E0FC7D00EE250824C0F582E4347DF58379
:1007A400E0FAE44204EA42058C828D83C007C00665
:1007B40012133AD006D00702088F7E007F02C007CA
:1007C400C006121286AC82AD83D006D0078509829A
:1007D40075837E8D03EBF0E509042400F582E4348F
:1007E4007EF5837D00ECF002088F7E02E508042488
:1007F400C0F582E4347DF583E0FDEE250824C0F5E0
:1008040082E4347DF583E0F50A8D82C007C00612C8
:1008140012C9D006D00780737E05E5080424C0F50C
:1008240082E4347DF583E0FD7402250824C0F5825A
:10083400E4347DF583E0F50A7403250824C0F582C9
:10084400E4347DF583E0F50B7404250824C0F582B7
:10085400E4347DF583E0F50CEE250824C0F582E44C
:10086400347DF583E0F50D8D82C007C0061212E0D9
:10087400D006D00780157E01C007C0061204E4D05C
:1008840006D00780067E0180027E00EF2509F50967
:10089400AD087F008E037C00EB2DFDEC3FFF0DBD0A
:1008A40000010F907FC9E0FC7B00C3ED9CEF6480E6
:1008B4008BF063F08095F04002D322EE042508F516
:1008C40008C32275080075090010000280FB907FA0
:1008D40096E0FF747F5FF0C20220020712052692A1
:1008E4000280F6907F96E0FF74804FF0E509600B7C
:1008F400907FB9E509F010010280FB907FC9E4F014
:1009040080C1E582FF24C0F582E4347DF583E0F5FF
:1009140028EF0424C0F582E4347DF583E0F52974DE
:10092400022FFC24C0F582E4347DF583E0C4540F27
:10093400FB53030FEC24C0F582E4347DF583E0FC23
:10094400740F5CF52A74032F24C0F582E4347DF51A
:1009540083E0FA74042F24C0F582E4347DF583E047
:10096400F52BEB60078A0A8B8212120B907F97E0BB
:10097400FB5303F874044BFA7900A8287C0018B8D8
:10098400FF011C89067F00C3EE98EF64808CF0633E
:10099400F08095F050317F007E00907F97EBF0EF70
:1009A400C313FFEAF0907F99E0FC30E5034307802E
:1009B4000EBE080040E4E527292400F582E4347ED5
:1009C400F583EFF00980B389067F00AC2A8F2CC32E
:1009D400E52C9529503EA829790018B8FF0119AAD9
:1009E4002C7D00EAB50011EDB5010DEC600A43035E
:1009F400021CE52BC313F52B907F97EBF0EFC31389
:100A0400FF74044BF0907F99E0FD30E503430780C9
:100A1400052C80BBAB297D007408C39BFBE49DFDC2
:100A24008BF005F0EF8002C313D5F0FBFFE5272E12
:100A34002400F582E4347EF583EFF0EC6008852B26
:100A44000A8C8202120B22E582FF24C0F582E43470
:100A54007DF583E0F52EEF0424C0F582E4347DF5C2
:100A640083E0F52F74022FFC24C0F582E4347DF575
:100A740083E0C4540FFB53030FEC24C0F582E43429
:100A84007DF583E0FC740F5CF53074032F24C0F50E
:100A940082E4347DF583E0FA74042F24C0F582E403
:100AA400347DF583E0F531EB60078A0A8B821212FC
:100AB4003C907F97E0FB5303F874044BFA753200C3
:100AC400A82E7C0018B8FF011CA9327E00C3E99847
:100AD400EE64808CF063F08095F0504C7E007C00D6
:100AE400907F97EBF07900C3E9952250030980F7D2
:100AF400EEC313FE907F97EAF07900C3E995225084
:100B0400030980F7907F99E0F930E5034306800CF0
:100B1400BC080040CBE52D25322400F582E4347E68
:100B2400F583EEF005328098AC327E00AA308E3325
:100B3400C3E533952F5057A82F7F0018B8FF011F26
:100B4400A9337D00E9B50011EDB5070DEA600A434C
:100B540003021AE531C313F531907F97EBF07F0060
:100B6400C3EF952250030F80F7EEC313FE907F97D7
:100B740074044BF07F00C3EF952250030F80F7906D
:100B84007F99E0FF30E503430680053380A2AD2F53
:100B94007F007408C39DFDE49FFF8DF005F0EE8097
:100BA40002C313D5F0FBFEE52D2C2400F582E434BA
:100BB4007EF583EEF0EA600885310A8A8202123CEF
:100BC40022E582FF24C0F582E4347DF583E0F53428
:100BD400EF0424C0F582E4347DF583E0F535740236
:100BE4002FFC24C0F582E4347DF583E0C4540FFB6C
:100BF40053030FEC24C0F582E4347DF583E0FC74E8
:100C04000F5CF53674032F24C0F582E4347DF5833C
:100C1400E0FA74042F24C0F582E4347DF583E0F512
:100C240037EB600B8A0A8B82C00712120BD0079035
:100C34007F97E0FB5303F97A00A8347C0018B8FFCF
:100C4400011C8A017E00C3E998EE64808CF063F095
:100C54008095F05033EF2A240524C0F582E4347DD6
:100C6400F583E0FE7C00EE30E0054303018003538E
:100C740003FE907F97EBF0EEC313FE74044BF00C6D
:100C8400BC080040E10A80B1EF2A240524C0F582A3
:100C9400E4347DF583E0FEAF367C00C3EC9535503B
:100CA4003EEE30E00543030180035303FEA9357A89
:100CB4000019B9FF011A8C007D00E8B50111EDB5EA
:100CC400020DEF600A4303021FE537C313F53790A3
:100CD4007F97EBF0EEC313FE74044BF00C80BCEF73
:100CE400600885370A8F8202120B22E582F53824C8
:100CF400C0F582E4347DF583E0F539E5380424C099
:100D0400F582E4347DF583E0F53A74022538FC2459
:100D1400C0F582E4347DF583E0C4540FFB53030F24
:100D2400EC24C0F582E4347DF583E0FC740F5CF5BB
:100D34003B7403253824C0F582E4347DF583E0FA5E
:100D44007404253824C0F582E4347DF583E0F53C51
:100D5400EB60078A0A8B8212123C907F97E0FB5368
:100D640003F97A00A8397C0018B8FF011C8A067FB1
:100D740000C3EE98EF64808CF063F08095F0504DE2
:100D8400E5382A240524C0F582E4347DF583E0FFA8
:100D94007E00EF30E00543030180035303FE907FA0
:100DA40097EBF07C00C3EC952350030C80F7EFC362
:100DB40013FF907F9774044BF07C00C3EC95235091
:100DC400030C80F70EBE080040C80A8097E5382A55
:100DD400240524C0F582E4347DF583E0FFAE3B7C3A
:100DE40000C3EC953A5057EF30E00543030180030C
:100DF4005303FEA83A7A0018B8FF011A8C017D004B
:100E0400E9B50011EDB5020DEE600A4303021EE5DB
:100E14003CC313F53C907F97EBF07D00C3ED952325
:100E240050030D80F7EFC313FF907F9774044BF0CA
:100E34007D00C3ED952350030D80F70C80A3EE6075
:100E440008853C0A8E8202123C22E582FF24C0F50A
:100E540082E4347DF583E0F53EEF0424C0F582E4BA
:100E6400347DF583E0F53F74022FFC24C0F582E461
:100E7400347DF583E0C4540FFB53030FEC24C0F519
:100E840082E4347DF583E0FC740F5CF54074032F39
:100E940024C0F582E4347DF583E0FA74042F24C081
:100EA400F582E4347DF583E0F541EB600B8A0A8B2F
:100EB40082C00712120BD007907F97E0FB5303F90F
:100EC4007A00A83E7C0018B8FF011C8A017E00C38A
:100ED400E998EE64808CF063F08095F05056EF2A28
:100EE400240524C0F582E4347DF583E0F5427C00DA
:100EF4007900E54230E00543030180035303FE908B
:100F04007F97EBF0E542C313F54274044BF0ECC356
:100F140013FC907F99E0F830E50343048009B90895
:100F24000040CFE53D2A2400F582E4347EF583ECCD
:100F3400F00A808E8A01EF2A240524C0F582E43465
:100F44007DF583E0F5427C00AF408C43C3E54395D7
:100F54003F5051E54230E00543030180035303FE53
:100F6400A83F7D0018B8FF011DAA437E00EAB50022
:100F740011EEB5050DEF600A4303021FE541C313EB
:100F8400F541907F97EBF0E542C313F54274044BAF
:100F9400F0ECC313FC907F99E0FE30E5034304803A
:100FA400054380A8AD3F7E007408C39DFDE49EFE0A
:100FB4008DF005F0EC8002C313D5F0FBFCE53D2970
:100FC4002400F582E4347EF583ECF0EF600885417B
:100FD4000A8F8202120B22E582F54524C0F582E4D1
:100FE400347DF583E0F546E5450424C0F582E43418
:100FF4007DF583E0F54774022545FC24C0F582E4C1
:10100400347DF583E0C4540FFB53030FEC24C0F587
:1010140082E4347DF583E0FC740F5CF548740325A9
:101024004524C0F582E4347DF583E0FA7404254553
:1010340024C0F582E4347DF583E0F549EB60078A4A
:101044000A8B8212123C907F97E0FB5303F97A00DB
:10105400A8467C0018B8FF011C8A067F00C3EE98DE
:10106400EF64808CF063F08095F05071E5452A249C
:101074000524C0F582E4347DF583E0F54A7E007CE6
:1010840000E54A30E00543030180035303FE907FEB
:1010940097EBF07800C3E8952450030880F7E54AFD
:1010A400C313F54A907F9774044BF07800C3E89516
:1010B4002450030880F7EEC313FE907F99E0F830C4
:1010C400E5034306800CBC080040B6E5442A24002E
:1010D400F582E4347EF583EEF00A0210548A04E5C6
:1010E400452A240524C0F582E4347DF583E0F54ADD
:1010F4007E00AA488E4BC3E54B9547506AE54A30BB
:10110400E00543030180035303FEA9477D0019B999
:10111400FF011DA84B7F00E8B50111EFB5050DEAED
:10112400600A4303021AE549C313F549907F97EB1C
:10113400F07F00C3EF952450030F80F7E54AC313F3
:10114400F54A907F9774044BF07F00C3EF952450C9
:10115400030F80F7EEC313FE907F99E0FF30E503A1
:10116400430680054B808FAD477F007408C39DFD07
:10117400E49FFF8DF005F0EE8002C313D5F0FBFE73
:10118400E5442C2400F582E4347EF583EEF0EA6035
:101194000885490A8A8202123C22AE82AF83907F7C
:1011A40097E0FD5305FB74044DFC7A007B00C3EA11
:1011B4009EEB9F500E907F97EDF0ECF00ABA00EE94
:1011C4000B80EB22AE82AF83907F97E0FD5305FB4B
:1011D40074044DFC7A007B00C3EA9EEB9F50279079
:1011E4007F97EDF07900C3E9952550030980F790C6
:1011F4007F97ECF07900C3E9952550030980F70A3D
:10120400BA00D50B80D222AF82907F97E0FE5306BE
:10121400FB7D00C3ED9F501FE50A30E00543060245
:1012240080035306FD907F97EEF0E50AC313F50A99
:1012340074044EF00D80DC22AF82907F97E0FE5361
:1012440006FB7D00C3ED9F5038E50A30E0054306F8
:101254000280035306FD907F97EEF07C00C3EC956B
:101264002650030C80F7E50AC313F50A907F9774A0
:10127400044EF07C00C3EC952650030C80F70D80DF
:10128400C3227F00907F99E0FE30E5027F01907FCA
:1012940099E0FE30E603430702907F9AE0FE30E7D0
:1012A40003430704907F9BE0FE30E5034307089067
:1012B4007F9AE0FE53067F8F05E4FFFCEE4FF58234
:1012C400EC4DF58322E582547FF4FF907F97E0FE96
:1012D400EF5EF0747F550AFFE04FF022858222858D
:1012E4000A23850B24850C25850D262200227E5693
:1012F4007F02EE24FFFCEF34FFFD8C068D07EC4DDE
:1013040070F022750A05750B00121364AE82AF8368
:101314007C007D00C3EC9EED9F501AC007C006C040
:1013240005C0041212F0D004D005D006D0070CBCBE
:1013340000E20D80DF22AE82AF837C007D00C3EC2F
:101344009EED9F501AC007C006C005C0041212F2D9
:10135400D004D005D006D0070CBC00E20D80DF22FB
:03004300021B009D
:101B00000201100002016100020162000201630093
:101B10000201640002016500020166000201670023
:101B2000020168000201690002016A0002018200EC
:101B300002019A0002019B0002019C0002019D002B
:101B400002019E0002019F000201A0000201A1000B
:081B50000201A2000201A30042
:101364007A10E4FBFCE58225E0F582E58333F5831E
:10137400EB33FBEC33FCEB950AF5F0EC950B4006F4
:09138400FCABF0438201DADD222A
:0600A000E478FFF6D8FD34
:10007E007900E94400601B7A0090141F7800759295
:10008E0020E493F2A308B800020592D9F4DAF275CF
:02009E0092FFCF
:1000A6007800E84400600A7900759220E4F309D8E4
:1000B600FC7800E84400600C7900902000E4F0A38E
:0400C600D8FCD9FA8F
:0D00710075814B12138DE582600302006E55
:04138D007582002243
:00000001FF
